{
  "_format": "hh-sol-artifact-1",
  "contractName": "ManuelToken",
  "sourceName": "contracts/ManualToken.sol",
  "abi": [
    {
      "inputs": [
        {
          "internalType": "address",
          "name": "",
          "type": "address"
        },
        {
          "internalType": "address",
          "name": "",
          "type": "address"
        }
      ],
      "name": "allowance",
      "outputs": [
        {
          "internalType": "uint256",
          "name": "",
          "type": "uint256"
        }
      ],
      "stateMutability": "view",
      "type": "function"
    },
    {
      "inputs": [
        {
          "internalType": "address",
          "name": "",
          "type": "address"
        }
      ],
      "name": "balanceOf",
      "outputs": [
        {
          "internalType": "uint256",
          "name": "",
          "type": "uint256"
        }
      ],
      "stateMutability": "view",
      "type": "function"
    },
    {
      "inputs": [
        {
          "internalType": "address",
          "name": "from",
          "type": "address"
        },
        {
          "internalType": "address",
          "name": "to",
          "type": "address"
        },
        {
          "internalType": "uint256",
          "name": "amount",
          "type": "uint256"
        }
      ],
      "name": "transfer",
      "outputs": [],
      "stateMutability": "nonpayable",
      "type": "function"
    },
    {
      "inputs": [],
      "name": "transferFrom",
      "outputs": [],
      "stateMutability": "nonpayable",
      "type": "function"
    }
  ],
  "bytecode": "0x608060405234801561001057600080fd5b506104a9806100206000396000f3fe608060405234801561001057600080fd5b506004361061004c5760003560e01c806370a0823114610051578063811c34d314610081578063beabacc81461008b578063dd62ed3e146100a7575b600080fd5b61006b6004803603810190610066919061029a565b6100d7565b60405161007891906102e0565b60405180910390f35b6100896100ef565b005b6100a560048036038101906100a09190610327565b6100f1565b005b6100c160048036038101906100bc919061037a565b610212565b6040516100ce91906102e0565b60405180910390f35b60016020528060005260406000206000915090505481565b565b80600160008573ffffffffffffffffffffffffffffffffffffffff1673ffffffffffffffffffffffffffffffffffffffff1681526020019081526020016000205461013c91906103e9565b600160008573ffffffffffffffffffffffffffffffffffffffff1673ffffffffffffffffffffffffffffffffffffffff1681526020019081526020016000208190555080600160008473ffffffffffffffffffffffffffffffffffffffff1673ffffffffffffffffffffffffffffffffffffffff168152602001908152602001600020546101ca919061041d565b600160008473ffffffffffffffffffffffffffffffffffffffff1673ffffffffffffffffffffffffffffffffffffffff16815260200190815260200160002081905550505050565b6002602052816000526040600020602052806000526040600020600091509150505481565b600080fd5b600073ffffffffffffffffffffffffffffffffffffffff82169050919050565b60006102678261023c565b9050919050565b6102778161025c565b811461028257600080fd5b50565b6000813590506102948161026e565b92915050565b6000602082840312156102b0576102af610237565b5b60006102be84828501610285565b91505092915050565b6000819050919050565b6102da816102c7565b82525050565b60006020820190506102f560008301846102d1565b92915050565b610304816102c7565b811461030f57600080fd5b50565b600081359050610321816102fb565b92915050565b6000806000606084860312156103405761033f610237565b5b600061034e86828701610285565b935050602061035f86828701610285565b925050604061037086828701610312565b9150509250925092565b6000806040838503121561039157610390610237565b5b600061039f85828601610285565b92505060206103b085828601610285565b9150509250929050565b7f4e487b7100000000000000000000000000000000000000000000000000000000600052601160045260246000fd5b60006103f4826102c7565b91506103ff836102c7565b925082821015610412576104116103ba565b5b828203905092915050565b6000610428826102c7565b9150610433836102c7565b9250827fffffffffffffffffffffffffffffffffffffffffffffffffffffffffffffffff03821115610468576104676103ba565b5b82820190509291505056fea2646970667358221220395575fef6febef71492c86819d65294e0f69ee513f53a52c73b57dc01d5d58c64736f6c63430008090033",
  "linkReferences": {},
  "deployedLinkReferences": {}
}